:020000040800F2
:10000000780400209D010008571700088D12000891
:100010005517000837050008551A000800000000B1
:10002000000000000000000000000000711900083E
:100030003905000800000000A11800087319000825
:10004000B7010008B7010008B7010008B7010008B0
:10005000B7010008B7010008B70100083D05000816
:10006000B7010008B7010008B7010008B701000890
:10007000B7010008B7010008B7010008B701000880
:10008000B7010008B7010008B7010008B701000870
:10009000B7010008B7010008B7010008B701000860
:1000A000B7010008B7010008B7010008B701000850
:1000B000B7010008B7010008B7010008B701000840
:1000C000B7010008B7010008B7010008B701000830
:1000D000B7010008B7010008B7010008B701000820
:1000E000B7010008B7010008B7010008B701000810
:1000F000B7010008B7010008B7010008B701000800
:10010000B7010008B7010008B7010008B7010008EF
:10011000B7010008B7010008B7010008B7010008DF
:10012000B7010008B7010008B7010008B7010008CF
:10013000B7010008B7010008B7010008B7010008BF
:10014000B7010008B7010008B7010008B7010008AF
:10015000B7010008B7010008B7010008B70100089F
:10016000B7010008B7010008B7010008B70100088F
:10017000B7010008B7010008B7010008000000003F
:10018000B7010008B7010008DFF80CD000F052F901
:1001900000480047B11B000878040020064880474B
:1001A00006480047FEE7FEE7FEE7FEE7FEE7FEE75C
:1001B000FEE7FEE7FEE7FEE7011A000889010008F6
:1001C0002DE9F05F0546002092469B46884606468C
:1001D000814640241BE0284641464746224600F01F
:1001E0005AF853465A46C01A914110D31146184640
:1001F000224600F041F82D1A67EB01084F462246CF
:100200000120002100F038F817EB00094E41201EB4
:10021000A4F10104DFDC484631462A464346BDE8E6
:10022000F09FD2B201E000F8012B491EFBD27047CB
:100230000022F6E710B513460A4604461946FFF7B2
:10024000F0FF204610BDC1F30A5210B5C1F31301EF
:1002500040F2FF3341F480119A4201DA002010BDD0
:1002600040F233439A42A2F2334203DC524200F09E
:1002700012F810BD904010BD202A04DB203A00FA8D
:1002800002F1002070479140C2F1200320FA03F3ED
:10029000194390407047202A04DB203A21FA02F0EB
:1002A0000021704721FA02F3D040C2F120029140B0
:1002B0000843194670472DE9FE4F804681EA030046
:1002C000C00F0C46009021F0004123F00045B8EB30
:1002D0000200A94105D24046214690461C460B46E5
:1002E000024623F00040104347D0270DC7F30A0011
:1002F000C3F30A510290401A019040286BDAC3F30D
:10030000130040F4801B0098924620B10023D2EBEA
:10031000030A63EB0B0B01985946C0F140025046AB
:10032000FFF7AAFF06460D4650465946019A00F0CF
:1003300093F810EB08006141002487EA115284EA27
:10034000E7731A4340D0009A62B3019A012A4FEA38
:10035000075215DC001B61EB02014FF0004202EA7C
:100360000752CDE90042001C41F5801132462B4670
:1003700000F093F803B0BDE8F08F40462146F9E75E
:10038000001B61EB0201001C41F5801300185B416A
:100390002018A2F5001747EB030140EAD570B61903
:1003A0006D4111E06D084FEA360645EAC0754FEA27
:1003B0000752001B61EB0201001C41F58011490846
:1003C0004FEA30000019514132462B4603B0BDE8D8
:1003D000F04F00F053B80098012240000023D0EB0A
:1003E000020263EBE073009821464FEAE074B8EB39
:1003F000000061EB0401E9E783F000435BE781F073
:10040000004158E730B5041E71F1000404DB4FF0E1
:100410000044404264EB0101141E73F1000405DB4B
:100420001C464FF00043524263EB0403994208BF5D
:10043000904230BD064C074D06E0E06840F00103F5
:1004400094E8070098471034AC42F6D3FFF7A0FEBB
:10045000001C0008201C0008202A06DBCB17203ACD
:1004600041FA02F043EAE07306E041FA02F3D040B9
:10047000C2F12002914008431946704710B5141E7E
:1004800073F1000408DA401C41F1000192185B414D
:100490001A4301D120F0010010BD2DE9F04D924624
:1004A0009B4611B1B1FA81F202E0B0FA80F220323B
:1004B0009046FFF7E1FE04460F4640EA0A0041EA93
:1004C0000B0153465A46084313D0114653EA010024
:1004D00019D0C8F140025046FFF7DDFE05460E4632
:1004E000504659464246FFF7C7FE084305D0012053
:1004F00004E020463946BDE8F08D0020054346EA79
:10050000E0762C4337430A986305E40AA0EB080021
:100510000022FD0A44EA47540A3002D50020014671
:10052000E9E7010510196941DDE90845001969414C
:10053000BDE8F04DA2E7FEE77047000003480178F0
:10054000491C0170022000F019B8000000000020D2
:100550007047000070B5044600F0FAF80546601CCC
:1005600002D004480078044400F0F2F8401BA04296
:10057000FAD370BD1000002070470000044910B588
:100580000A68024202D00860FFF7F6FF10BD0000C3
:10059000143C01402DE9F84FDFF87CB100224FF008
:1005A00001084FF0030A4FF00F090BF1040E00BFD2
:1005B0000B6808FA02F42340A3426ED14D68022D65
:1005C00001D0122D0ED1D50800EB850CDCF820509F
:1005D0005607F70E09FA07F6B5430E69BE402E43DB
:1005E000CCF82060066855000F790AFA05FC07F080
:1005F000030726EA0C06AF40374307604E68012E1A
:1006000005D0022E03D0112E01D0122E0ED18668F5
:10061000CF6826EA0C06AF40374387604668A6439A
:100620000C79C4F30014944034434460C6688C6869
:1006300026EA0C06AC403443C4604C68E40065D53F
:10064000364C256845F480452560246822F0030572
:1006500004F480440094324C2E19D6F808489507CB
:100660002F0F09FA07F5AC432E4DA84201D1002502
:1006700024E02D4DA84201D101251FE02B4DA842B9
:1006800001D102251AE02A4DA84201D1032515E027
:10069000284DA84202D1042510E037E0264DA8429B
:1006A00001D105250AE0254DA84201D1062505E026
:1006B000234DA84201D1072500E00825BD40254370
:1006C000C6F80858DBF800405D464E689C43F603C8
:1006D00000D51C432C60DEF8004075464E689C43F4
:1006E000B60300D51C432C600B4D08352C684E68B2
:1006F0009C43F60200D51C432C60074D0C352C683A
:100700004E689C43B60200D51C432C60521C102A34
:10071000FFF44EAFBDE8F88F003C01404438024082
:100720000030014000000240000402400008024086
:10073000000C024000100240001402400018024069
:10074000001C02400AB1816170470904FBE7000008
:1007500001488068704700001000002070B5040058
:100760001BD094F83D00002520B984F83C50204669
:1007700000F042FA242084F83D002068016821F04E
:100780000101016000F09EFB4D4A6168914201D871
:100790004C4900E04C49884201D2012070BD4B49D0
:1007A0002368B0FBF1F15E6826F03F060E435E6001
:1007B0006368934206D94FF4967359434FF47A73A2
:1007C000B1FBF3F12368491C1E6A26F03F06314352
:1007D00019626168914210D84900401EB0FBF1F2E5
:1007E000521CC2F30B02042A01D2042022E0B0FB07
:1007F000F1F0401CC0F30B001CE0A368F3B301EB65
:10080000C10202EB0116421EB2FBF6F2521C42F488
:100810008042120549D093B301EBC10202EB0111F2
:10082000401EB0FBF1F0401CC0F30B0040F48040D0
:1008300040F400402168CA694CF6FF739A431043A4
:10084000C861D4E90701084321680A6822F0C002A0
:1008500010430860D4E9030101432068826848F22C
:10086000FF339A4311438160D4E9050108432168AD
:10087000CA6822F0FF021043C86001E00EE016E0F3
:100880002068016841F0010101602564202084F89E
:100890003D00256384F83E50002070BD01EB410609
:1008A000421EB2FBF6F2521CB3E70120C2E701EB95
:1008B0004101401EB0FBF1F0401CC0F30B00B7E754
:1008C000A086010080841E0000093D0040420F0008
:1008D0002DE9FF4F83B09A46DDE911979346044610
:1008E000DDF84080FFF734FF054694F83D002028EE
:1008F00070D11923012271492046009500F0C2FDF4
:100900000028F5D194F83C00012863D0012084F838
:100910003C0020680168C90703D1016841F001016A
:1009200001602068016821F400610160222084F8E0
:100930003D00402084F83E0000262664C4F8248050
:10094000A4F82A90608D20855D48E062CDE90075AD
:1009500053465A462046049900F0B0FC00287CD14A
:10096000208DD0B1012821D00228206824D04169EF
:1009700080690090208D032869D801282BD0514927
:1009800002283B464FF00002009559D08846204689
:1009900000F078FD002860D13CE020684169816961
:1009A0000091016841F40071016077E020680168FE
:1009B00021F480610160F0E7016821F48061016049
:1009C0002068016841F40061016020684169806924
:1009D000009063E06FE02A463946204600F0D1FDE2
:1009E00098BB20680069616A08704EE02068016861
:1009F00041F40071016020680069616A0870606AF2
:100A0000401C6062218D491E2185618D491E6185D2
:100A1000216838E02068016821F480610160206865
:100A20000069616A0870606A401C6062208D401E27
:100A30002085608D401E60853B4600224146009522
:100A4000204600F01FFD00B9D0E706E0FFE72A4688
:100A50003946204600F095FD18B1012007B0BDE8E9
:100A6000F08F20680069616A0870606A401C6062EB
:100A7000218D491E2185618D491E618521684A6944
:100A8000D24352070AD409690170606A401C60624F
:100A9000208D401E2085608D401E6085208D0028A1
:100AA0007FF468AF202084F83D0084F83E6084F82D
:100AB0003C600020D2E70220D0E7000002001000D6
:100AC0000000FFFF040001002DE9FF4F83B09A46AC
:100AD000DDE9119793460446DDF84080FFF738FEC4
:100AE000054694F83D0020287FD119230122404972
:100AF0002046009500F0C6FC002876D194F83C0012
:100B0000012872D0012084F83C0020680168C907E0
:100B100003D1016841F0010101602068016821F4FE
:100B200000610160212084F83D00402084F83E00EF
:100B300000262664C4F82480A4F82A90608D2085BD
:100B40002C48E062CDE9007553465A462046049988
:100B500000F028FC70B930E02A463946204600F003
:100B600043FD58B1206C042804D12068016841F489
:100B700000710160012007B0BDE8F08F606A216854
:100B800000780861606A401C6062218D491E89B24C
:100B90002185628D521E628522685369DB435B07A3
:100BA0000BD469B100781061606A401C6062208DCE
:100BB000401E2085608D401E6085208D0028CBD191
:100BC0002A463946204600F037FC0028CAD154F89E
:100BD0003D0B016841F400710160202004F81E09FA
:100BE000E67766770020C6E7FFE70220C3E700004C
:100BF000020010000000FFFF10B586B0044614216B
:100C00006846FFF715FB13492068884220D1124837
:100C1000016841F0020101600068694600F00200CD
:100C20000590C02000901220019001200290032026
:100C30000390042004900948FFF7ACFC06481030EC
:100C4000016841F400110160006800F40010059093
:100C500006B010BD0054004030380240000402408D
:100C600002488168027811448160704710000020BA
:100C70000B4810B5016841F400710160016841F44E
:100C800080610160016841F480710160032000F01F
:100C90006FF8002000F006F800F024F8002010BDE6
:100CA000003C024070B50D4D04464FF47A7128782F
:100CB000B1FBF0F00A490968B1FBF0F000F0D2FA9C
:100CC00048B9102C07D200222146501E00F030F8FF
:100CD00000206C6070BD012070BD0000100000207D
:100CE0001C0000200A4808B5016841F480410160F9
:100CF000006800F4804000900548001F016841F042
:100D000080510160006800F08050009008BD000034
:100D100044380240002809DB00F01F020121914005
:100D20004009800000F1E020C0F800117047000089
:100D3000F0B40E4B1B680C46C3F30223C3F1070546
:100D4000042D00D90425191D072901D2002300E034
:100D5000DB1E012606FA05F1491E214099409E40FE
:100D6000761E16403143F0BC00F075BE0CED00E07D
:100D7000064900F0070208684FF6FF03184040EAF2
:100D80000220034A10430860704700000CED00E0A9
:100D90000000FA052DE9F0470E46050065D0DFF8A2
:100DA0001481D8F80000F7B200F00F00B04207D26B
:100DB00088F80070D8F8000000F00F00B04254D15D
:100DC00028683D4C810712D5400703D5206840F4C0
:100DD000E05020602878000703D5206840F4604088
:100DE00020602068A96820F0F0000843206028787F
:100DF000C0072DD0304968680839012812D0022870
:100E000013D0032811D00968890700292DDA216839
:100E100021F0030101432160FFF79AFC814641F272
:100E2000883A0EE009688903EFE709688901ECE771
:100E3000FFF78EFCA0EB0901514502D90320BDE864
:100E4000F0872068696800F00C00B0EB810FEFD1EB
:100E5000D8F80010404601F00F01B14207D90770E1
:100E6000006800F00F00B04201D00120E7E72878C9
:100E7000400705D52068E96820F4E0500843206069
:100E80002878000706D52068296920F4604040EAE8
:100E9000C100206000F026F82168084AC1F3031160
:100EA000515CC840064908600020FFF7FBFE0020A7
:100EB000C5E70000003C024008380240E81B00087B
:100EC0001C0000200448054900680968044AC1F371
:100ED0008221515CC84070471C0000200838024045
:100EE000F81B0008154810B5006810F00C021448F3
:100EF00013D01449042A0FD0082A0ED10F4C241FF6
:100F00002268236802F03F025B0207D52068C0F325
:100F10008810A0FB010106E0084610BD2168C1F35E
:100F20008811A1FB00010023FFF74AF92168C1F3F2
:100F30000141491C4900B0FBF1F010BD08380240E6
:100F40000024F40040787D012DE9F84F050076D0AB
:100F50002878DFF8F8B2BE4CC00749D0DBF80010A3
:100F60005846C1F38101012908D00068C0F381000F
:100F700002280AD1201D0068400206D5206880039F
:100F800036D568680028E2D032E06868B0F5803F66
:100F900010D0B0F5A02F206810D020F48030206051
:100FA000206820F4802020606868A0B1FFF7D0FBA3
:100FB00006460CE0206840F48030F4E740F48020DE
:100FC0002060F7E7FFF7C4FB801B642873D8206814
:100FD0008003F7D50CE0FFF7BBFB064605E000BF3A
:100FE000FFF7B6FB801B6428F0D820688003F7D495
:100FF0002878DFF8608280074FF000093ED5DBF8E3
:101000000010584611F00C0F09D00068C0F38100A1
:1010100002280BD18D48001F0068400206D42068CA
:10102000800715D5E868012809D111E0E868B8B152
:101030000120C8F80000FFF78BFB064605E002E13F
:10104000FFF786FB801B0228C0D820688007F7D5F1
:101050002068296920F0F80040EAC10020600DE016
:10106000C8F80090FFF774FB064604E0FFF770FB3A
:10107000801B02281FD820688007F7D42878000733
:1010800022D5724E744869696C3671B101210160D4
:10109000FFF75EFB074604E0FFF75AFBC01B022880
:1010A00009D830688007F7D50EE0C0F80090FFF748
:1010B0004FFB074605E083E0FFF74AFBC01B022811
:1010C0007ED830688007F7D42878400768D5DFF8E5
:1010D0007CA100270AF1380ADAF80000C0000BD41E
:1010E000DAF8001041F08051CAF80010DAF8000078
:1010F000012700F080500090584E3068C00510D491
:10110000306840F480703060FFF722FB009005E00B
:10111000FFF71EFB0099401A022851D83068C0051D
:10112000F6D54A4EA868683601280FD005283068E1
:1011300010D020F001003060306820F004003060F2
:10114000A868B8B1FFF704FB00900FE0306840F0EA
:101150000100F4E740F004003060F7E7FFF7F8FA29
:101160000099411A41F28830814264D83068800782
:10117000F4D50EE0FFF7ECFA009007E0FFF7E8FA8D
:101180000099411A41F28830814254D83068800772
:10119000F4D42FB1DAF8001021F08051CAF8001011
:1011A000A869C0B3DBF80010C1F3810102294AD05D
:1011B0000228484607D0C8F86000FFF7C9FA00E0E7
:1011C00039E005463AE04746C8F86000FFF7C0FA44
:1011D000064604E0FFF7BCFA801B02282BD82068E3
:1011E0008001F7D4D5E907010843A96A1C4A4908D8
:1011F00002EB01416A6A41EA8211084395F82C101A
:1012000040EA01611148001F016001203866FFF7C4
:101210009FFA054605E014E0FFF79AFA401B022802
:1012200009D820688001F7D50BE000BFFFF790FADE
:10123000401B022802D90320BDE8F88F20688001F6
:10124000F4D40020F8E70120F6E700000838024057
:101250000038024000004742800E474200700040C4
:101260000000FFFF10B5401EB0F1807F01D30120C8
:1012700010BD4FF0E02460610F21601700F0EBFB20
:101280000020A06107202061002010BDFEE701685A
:101290004A69D24352050FD46FF480624A6100213B
:1012A00040F8301F202242738173026942F0040229
:1012B0000261017301207047002070472DE9F84F4B
:1012C0000446006889460B9D01689846174641F41C
:1012D000806101602068016841F4807101600095BF
:1012E0004FF0011A0022514620460A9B00F0CAF82E
:1012F000002853D1216809F0FE0008610AF1010BB2
:101300002B46594620460A9A00F0F0F8F0BB2068B8
:101310004169806900902A4620460A9900F064F9E4
:1013200040B1206C042839D12068016841F4007173
:10133000016033E0FEB2B8F1010F09D02168380A2C
:1013400008612A4620460A9900F04EF90028E8D1A3
:10135000206806612A4620460A9900F045F90028CF
:10136000DFD12068016841F480710160009500229E
:10137000514620460A9B00F085F838B9216809F0EB
:10138000FF0040F0010008612B4600E006E05946EE
:1013900020460A9A00F0AAF8002800D00120BDE8F3
:1013A000F88F00002DE9F843044600680D46DDE99A
:1013B000089701689846164641F4807101604B46D3
:1013C00000224FF001112046009700F05BF8E0B9D1
:1013D000216805F0FE0008613B464A461549204653
:1013E00000F084F888B920684169806900903A4625
:1013F0004946204600F0F8F850B1206C042804D18A
:101400002068016841F4007101600120BDE8F883A3
:10141000F5B2B8F1010F09D02168300A08613A46E7
:101420004946204600F0E0F80028E6D12068056132
:101430000020EBE70200010070B516460D46044699
:101440000DE02046FFF723FF08B1012070BD681CA6
:1014500005D0FFF77DF9801BA84207D835B1206879
:101460004069C0434007ECD4002070BD002044F820
:10147000300F20216173A073216941F020012161A7
:101480002073E2E72DE9F0471E4690460D460446DC
:10149000C1F30747DDF8209008E0701C06D0FFF785
:1014A00057F9A0EB0900B0420FD876B12068012FA0
:1014B00018D0806925EA00000004000C14D0002137
:1014C0004145EAD00020BDE8F087002044F8300F05
:1014D00020216173A073216941F0200121612073F3
:1014E0000120F0E74069E5E70121E9E72DE9F04750
:1014F0009A4691460E46044600254FF02008C1F357
:10150000074725E020684069C043400514D420689F
:10151000016841F40071016021686FF480604861E6
:10152000256384F83D8084F83E50206C40F0040030
:10153000206484F83C501FE0B9F1FF3F08D0FFF76A
:1015400007F9A0EB0A0149450CD8B9F1000F09D001
:101550002068012F13D0806926EA00000004000CE7
:101560000BD0CFE744F8305F84F80D80A573206975
:1015700040F02000206125730120BDE8F08740691C
:10158000EAE72DE9F041002590460E460446202763
:1015900017E04069C043C0060CD454F8301B6FF00C
:1015A0001000486144F810596777A577206A2062D7
:1015B000257717E0FFF7CCF8A0EB0800B04208D879
:1015C0003EB120684169C9434906E2D40020BDE824
:1015D000F08144F8305F6773A573206940F0200004
:1015E000206125730120F2E770B516460D460446CA
:1015F0000DE02046FFF74BFE08B1012070BD681CCE
:1016000005D0FFF7A5F8801BA84207D835B12068A0
:101610004069C0430006ECD4002070BD002044F8AF
:10162000300F20216173A073216941F020012161F5
:101630002073E2E72DE9F04186B014216846FEF7F9
:10164000F7FD2F480024016841F010010160016896
:1016500001F010010591016841F08001016001680D
:1016600001F080010591016841F00101016001680C
:1016700001F001010591016841F00201016000687B
:10168000204F00F002000590002204213846FFF7A9
:1016900059F8DFF87480002202214046FFF752F823
:1016A000042000900125CDE9015469463846039491
:1016B000FEF770FF02260096CDE9015469464046C8
:1016C0000394FEF767FF012204213846FFF73AF83A
:1016D000012202214046FFF735F80C480096CDE97B
:1016E000010469460A48FEF755FF0022114607200B
:1016F000FFF71EFB0720FFF70DFB06B0BDE8F081EA
:101700003038024000100240000402400000111076
:10171000000002400D4810B50B4901600C494160C2
:1017200000214FF480428160C0E903124161816170
:10173000C1610162FFF712F8002803D0BDE8104034
:10174000FEF706BF10BD000000540040200000203E
:10175000A0860100FEE77047FEB52A4C9FED280ADF
:1017600084ED020A9FED280A84ED010A9FED270B04
:1017700000F082F951EC100BFEF765FD6070012658
:10178000A71C4FF6FF750097CDE90165334600228F
:10179000AB212048FFF79CF8A078012300F07F00E0
:1017A00040F01000E070E01CCDE900060022AA2104
:1017B00002951848FFF788F9601CCDE9000601235F
:1017C000FE22AA2102951348FFF77EF90097CDE982
:1017D000016501230022AA210E48FFF775F90220B6
:1017E000FEF7B8FEA078012340F0A100A07000979A
:1017F000CDE901650022AA210648FFF765F9FEBD83
:1018000000008C4204000020DB62AC42000000605B
:101810005BAC55402000002070B588B00446080A33
:101820008DF81000100A8DF8180001268DF814208C
:1018300003A8CDE9000606208DF80C104FF6FF75C1
:1018400000EB840202953346AA211448FFF73CF9C5
:1018500004A8CDE90006072000EB840202950123CD
:10186000AA210E48FFF730F905A8CDE900060820A7
:1018700000EB840202950123AA210848FFF724F90E
:1018800006A8CDE90006092000EB84020295012399
:10189000AA210248FFF718F908B070BD2000002007
:1018A000704700000EB501212F484FF6FF728DE8FA
:1018B00007000B460022AA212C48FFF705F9FFF785
:1018C0004BFF4FF4006200210120FFF7A5FF00222B
:1018D00011460220FFF7A0FF002211460320FFF768
:1018E0009BFF002211460420FFF796FF00221146BD
:1018F0000520FFF791FF002211460620FFF78CFF1D
:10190000002211460720FFF787FF0022114608201A
:10191000FFF782FF002211460920FFF77DFF00221A
:1019200011460A20FFF778FF002211460B20FFF72F
:1019300073FF002211460C20FFF76EFF00221146B4
:101940000D20FFF769FF002211460E20FFF764FF0C
:10195000002211460F20FFF75FFFBDE80E404FF455
:10196000FA70FEF7F7BD0000040000202000002000
:101970007047FFF775B9000030B593B03021684665
:10198000FEF756FC14210CA8FEF752FC1A4800255D
:10199000016841F080510160006800F080501190B2
:1019A0001648016841F4804101600068022400F497
:1019B0008040119001200090000401908001CDE949
:1019C0000640192008904FF4A870CDE909040420BE
:1019D0000B906846FFF7B8FA0CA90F2081E8310098
:1019E0004FF4A0500F90E002109005210CA8FFF7D3
:1019F000D1F913B030BD0000403802400070004003
:101A00001048016841F4700101600F48016841F01D
:101A1000010101600C4A00210832116002680B4B81
:101A20001A400260031D0A4A1A60026822F48022EA
:101A3000026005480C300160024958068039086090
:101A40007047000088ED00E000380240FFFFF6FE1E
:101A500010300024FEE70907090E002804DB00F11E
:101A6000E02080F80014704700F00F0000F1E02043
:101A700080F8141D704700002DE9F0412DED020B98
:101A80009FED3D0B2DED028B9FED3D8BDDE902546B
:101A9000C4F30A50A0F2FF36142E37DA002E18DAFB
:101AA00053EC102B9DED020B51EC100BFEF703FCD9
:101AB00053EC182BFEF7A6FC57D2002CA4BF002431
:101AC000254652DA24F00040284318BF2E4C4CD053
:101AD0001AE02E4820FA06F704EA070028431FD030
:101AE00053EC102B9DED020B51EC100BFEF7E3FBBA
:101AF00053EC182BFEF786FC37D2002C03DA4FF498
:101B00008010F0400444BC4300252EE0332E07DC57
:101B1000A6F114004FF0FF3121FA00F73D4206D143
:101B20009DED020BBDEC028B02B0BDE8F08153ECE1
:101B3000102B9DED020B51EC100BFEF760FC53ECEB
:101B4000182BFEF75FFC10D2002C0DDA142E08BF04
:101B5000641C09D0C6F13400012101FA00F02844C8
:101B6000A84238BF641C0546BD43CDE902549DED33
:101B7000020BD7E7000000009C7500883CE4377E2C
:101B800000000000000000000000F0BFFFFF0F0099
:101B900002E008C8121F08C1002AFAD17047704736
:101BA000002001E001C1121F002AFBD17047000094
:101BB000FFF75EF8FFF7E0FEFFF73CFDFFF7AAFD39
:101BC000FFF770FE064C074E002520780228FCD354
:101BD0002570002202213046FEF7B4FDF5E7000033
:101BE000000000200004024000000000000000008F
:101BF00001020304060708090000000001020304B3
:101C0000201C00080000002020000000901B00089D
:101C1000401C00082000002058040000A01B000801
:101C200000000000000000000000000000000000B4
:101C30000100000010000000000000000024F4007B
:040000050800018965
:00000001FF
